:020000040800F2
:10000000000002209D250008952400089724000880
:10001000992400089B2400089D240008000000008B
:100020000000000000000000000000009F24000805
:10003000A124000800000000A3240008A524000853
:10004000ED250008ED250008ED250008ED25000848
:10005000ED250008ED250008ED250008ED25000838
:10006000ED250008ED250008ED250008ED25000828
:10007000ED250008ED250008ED250008ED25000818
:10008000ED250008ED250008ED250008ED25000808
:10009000ED250008ED250008ED250008ED250008F8
:1000A000ED250008ED250008ED250008ED250008E8
:1000B000ED250008ED250008ED250008ED250008D8
:1000C000ED250008ED250008ED250008ED250008C8
:1000D000ED250008ED250008ED250008ED250008B8
:1000E000ED250008ED250008ED250008ED250008A8
:1000F000ED250008ED250008ED250008ED25000898
:10010000ED250008ED250008ED250008ED25000887
:10011000ED250008ED250008ED250008ED25000877
:10012000ED250008ED250008ED250008ED25000867
:10013000ED250008ED250008ED250008ED25000857
:10014000ED250008ED250008ED250008ED25000847
:10015000ED250008ED250008ED250008ED25000837
:10016000ED250008ED250008ED250008ED25000827
:10017000ED250008ED250008ED2500080000000031
:08018000ED250008ED25000843
:1001880010B5054C237833B9044B13B10448AFF3C9
:1001980000800123237010BD24000020000000000F
:1001A8004826000808B5034B1BB103490348AFF3C1
:1001B800008008BD00000000280000204826000834
:1001C800034613F8012B002AFBD1181A013870478F
:1001D80053B94AB9002908BF00281CBF4FF0FF31A6
:1001E8004FF0FF3000F088B9ADF1080C6DE904CE8E
:1001F80000F006F8DDF804E0DDE9022304B07047FA
:100208002DE9F047089D8E4604468846002B4AD1C2
:100218008A42174662D9B2FA82F64EB1C6F1200375
:1002280001FA06F820FA03F3B74043EA0808B44095
:100238004FEA174E1FFA87FCB8FBFEF1230C0EFBA2
:10024800118843EA084301FB0CF29A4209D9FB18CA
:1002580001F1FF3080F0EA809A4240F2E7800239EB
:100268003B449A1AA3B2B2FBFEF00EFB102243EAFB
:10027800024300FB0CFC9C4509D9FB1800F1FF3236
:1002880080F0D6809C4540F2D3803B44023840EA57
:100298000140A3EB0C0300211DB1F3400022C5E986
:1002A8000032BDE8F0878B4205D90DB1C5E90001E0
:1002B80000210846F5E7B3FA83F1002946D17345D2
:1002C80002D3824200F20581841A6EEB03020120F8
:1002D8009046002DE5D0C5E90048E2E7002A00F085
:1002E8009080B2FA82F6002E40F0A4808A1A030C9D
:1002F8004FEA174E80B2BCB20121B2FBFEFC0EFBE6
:100308001C2243EA024304FB0CF29A4207D9FB1869
:100318000CF1FF3802D29A4200F2E080C4469B1AE0
:10032800B3FBFEF20EFB123340EA034302FB04F474
:100338009C4207D9FB1802F1FF3002D29C4200F21E
:10034800CA8002461B1B42EA0C40A5E7C1F1200601
:100358008B4022FA06F71F430EFA01F420FA06F33F
:100368002EFA06FE4FEA1749234300FA01F81FFA4E
:1003780087FCBEFBF9F01C0C09FB10EE44EA0E44A6
:1003880000FB0CFEA64502FA01F209D93C1900F15E
:10039800FF3A80F09C80A64540F2998002383C44A0
:1003A800A4EB0E041FFA83FEB4FBF9F309FB134414
:1003B8004EEA044403FB0CFCA44508D93C1903F19C
:1003C800FF3E80F08280A4457FD9023B3C4443EA4B
:1003D8000040A4EB0C04A0FB02EC64457346E14624
:1003E80062D35FD05DB1B8EB030264EB090404FA91
:1003F80006F622FA01F31E43CC40C5E90064002149
:100408004FE7B1FBF2FC010C41EA0E4180B240EA31
:1004180001423B4638463C46B846BE462026B1FB1C
:10042800F7F1A2EB080241EA0C4166E7014618E73A
:1004380010462CE7C6F120022EFA02F3B740B1406D
:1004480020FA02F24FEA174E0A43B3FBFEF8BCB299
:100458000EFB1833110C41EA034108FB04F9B040C4
:1004680089454FEA104380B23ED9791808F1FF3C1C
:1004780001D289451FD8A1EB0901B1FBFEF909FB9F
:1004880004F80EFB191192B242EA0142424529D200
:10049800BA1809F1FF31C4D24245C2D2A9F102010A
:1004A8003A44BEE7F0459DD2BEEB02036CEB070C65
:1004B8000138E14696E7A7EB09094944A8F1020C7F
:1004C800B1FBFEF909FB04F8DBE773467FE750460A
:1004D80066E70846FDE63B44023A33E7ACF1020C16
:1004E8003B441CE749469CE7A1EB0901C446B1FB24
:1004F800FEF909FB04F8C4E7704700BF10B50446CD
:100508000E4B1A784FF47A73B3FBF2F30C4A106867
:10051800B0FBF3F000F0ACF868B90F2C01D901205A
:100528000AE0002221464FF0FF3000F091F8034B1B
:100538005C60002000E0012010BD00BF000000202A
:100548002000002008B50B4B1A6842F400721A60AC
:100558001A6842F480621A601A6842F480721A605B
:10056800032000F063F80020FFF7C8FF01F072FFD6
:10057800002008BD003C0240034A1168034B1B7869
:100588000B441360704700BF4000002000000020AB
:10059800014B1868704700BF4000002038B504467A
:1005A800FFF7F6FF0546B4F1FF3F02D0044B1B7876
:1005B8001C44FFF7EDFF401BA042FAD338BD00BF33
:1005C80000000020002808DB0901C9B200F16040E2
:1005D80000F5614080F80013704700F00F00090132
:1005E800C9B2014B1954704714ED00E000B500F092
:1005F8000700C0F1070CBCF1040F28BF4FF0040C32
:10060800031D062B0FD9C31E4FF0FF3E0EFA0CF048
:1006180021EA000199400EFA03FE22EA0E0241EA9D
:1006280002005DF804FB0023EEE70000074AD368E8
:1006380023F4E0631B041B0C000200F4E060034396
:1006480043F0BF6343F40033D360704700ED00E02C
:1006580010B50446054BD868C0F30220FFF7C6FF63
:1006680001462046FFF7AEFF10BD00BF00ED00E0D9
:100678000138B0F1807F0BD24FF0E0235861054A72
:10068800F02182F823100020986107221A61704730
:100698000120704700ED00E000230F2B00F2DA8004
:1006A800F0B583B03AE0072200E00022AA403243C6
:1006B8000234694D45F82420684A14686FEA0C0230
:1006C80024EA0C054E6816F4803F01D04CEA040574
:1006D800624C2560646802EA04054E6816F4003F1F
:1006E80001D04CEA04055D4C6560A46802EA040583
:1006F8004E6816F4801F01D04CEA0405574CA560DB
:10070800E46822404D6815F4001F01D04CEA040249
:10071800524CE26001330F2B00F29A8001229A407A
:100728000C6804EA020C32EA0404F3D14C68651E32
:10073800012D03D9112C01D0122C12D185685E002D
:100748000324B44025EA0405CC68B4402C438460F3
:10075800446824EA02044A68C2F300129A40224319
:100768004260C5684FEA430E032202FA0EF2D443F0
:1007780025EA02058A6802FA0EF22A43C2604A682C
:10078800022A01D0122A0FD1DD08083550F8257049
:1007980003F00706B6000F22B24027EA02070A69EB
:1007A800B2403A4340F82520026814404A6802F0F3
:1007B800030202FA0EF2224302604A6812F0805FD6
:1007C800A8D000220192264A546C44F48044546410
:1007D800526C02F480420192019A9C08A51C1E4AA0
:1007E80052F8256003F00305AD000F22AA4026EA5F
:1007F80002061C4A90423FF458AF02F580629042CC
:100808001AD002F58062904218D002F580629042B8
:1008180016D002F58062904214D002F580629042B0
:1008280012D002F58062904210D002F580629042A8
:100838003FF439AF082239E7012237E7022235E7CA
:10084800032233E7042231E705222FE706222DE7AA
:1008580003B0F0BD704700BF00380140003C0140C4
:10086800003802400000024003685A6912F4806FA1
:1008780001D1002070476FF480625A61002303633E
:10088800202280F83D2080F83E30026C42F00402BD
:10089800026480F83C30012070472DE9F04107469A
:1008A8000D4690461E4624E0FFF772FE069BC01ACE
:1008B800B04200D8EEB900233B63202287F83D20E0
:1008C80087F83E303A6C42F020023A6487F83C30B0
:1008D80001201EE03B689C6925EA040C1FFA8CFC89
:1008E800BCFA8CFC4FEA5C1CE04511D1B6F1FF3F25
:1008F800DAD1C5F30743012BECD13B685B6925EAE4
:10090800030C1FFA8CFCBCFA8CFC4FEA5C1CEBE76E
:100918000020BDE8F0812DE9F04105460E46174656
:1009280098463DE01A6842F400721A602B686FF42A
:1009380080625A6100232B63202285F83D2085F8C8
:100948003E302A6C42F004022A6485F83C300120CB
:1009580034E0FFF71DFEA0EB0800B84200D8FFB94D
:1009680000232B63202285F83D2085F83E302A6C31
:1009780042F020022A6485F83C3001201EE02B68F2
:100988009C6926EA0404A4B2003C18BF0124A4B15F
:100998002B685A6912F4806FC4D1B7F1FF3FD8D1E0
:1009A800C6F30743012BEAD12B685C6926EA0404E5
:1009B800A4B2003C18BF0124E9E70020BDE8F0819B
:1009C80070B504460D46164623685B6913F0800F20
:1009D8001CD12046FFF748FFD0B9B5F1FF3FF3D04F
:1009E800FFF7D6FD801BA84201D8002DECD10023CB
:1009F8002363202284F83D2084F83E30226C42F0A4
:100A08002002226484F83C30012000E0002070BD00
:100A18000120FCE72DE9F04385B004460D469146D8
:100A28001F46DDF830800D9E0368196841F4807117
:100A380019600096434600224FF00111FFF72DFF81
:100A480060B9236805F0FE051D6133464246264914
:100A58002046FFF760FF68B1012008E023681B68A3
:100A680013F4807F02D04FF400732364032005B091
:100A7800BDE8F0830023039323685A6903929B69B6
:100A88000393039B324641462046FFF799FF30B94E
:100A9800012F0FD123685FFA89F61E61E7E7236CFF
:100AA800042B01D00120E2E72268136843F40073A5
:100AB8001360F7E723684FEA19221A613246414664
:100AC8002046FFF77DFF20B923685FFA89F61E618B
:100AD800CDE7236C042B01D00120C8E722681368F6
:100AE80043F400731360F7E7020001002DE9F047B3
:100AF80084B004460D46164699460C9FDDF83480AE
:100B08000268136843F4806313600368196841F44A
:100B180080711960CDF800803B4600224FF001112A
:100B2800FFF7BBFE70B95FFA85FA236805F0FE058A
:100B38001D6143463A4641492046FFF7ECFE68B13D
:100B4800012008E023681B6813F4807F02D04FF46B
:100B580000732364032004B0BDE8F08700230393E7
:100B680023685A6903929B690393039B424639465B
:100B78002046FFF725FF80B9B9F1010F18D1236886
:100B8800F6B21E61424639462046FFF719FF68B3A0
:100B9800236C042B24D00120DDE7236C042B01D027
:100BA8000120D8E72268136843F400731360F7E75D
:100BB8002368320A1A61424639462046FFF700FF89
:100BC80018B92368F6B21E61DCE7236C042B01D048
:100BD8000120C0E72268136843F400731360F7E745
:100BE8002268136843F400731360D4E7226813681B
:100BF80043F480731360CDF800803B4600224FF029
:100C080001112046FFF749FE68B922684AF001033E
:100C1800136143463A4609492046FFF77CFE0028FF
:100C280099D0012097E723681B6813F4807F02D0CE
:100C38004FF40073236403208DE700BF0200010016
:100C480070B504460D46164623685B6913F0040F19
:100C58001CD12046FFF708FED0B9B5F1FF3FF3D00D
:100C6800FFF796FC801BA84201D8002DECD1002389
:100C78002363202284F83D2084F83E30226C42F021
:100C88002002226484F83C30012000E0002070BD7E
:100C98000120FCE770B505460C4616462B685969D5
:100CA80011F0400F29D1596911F0100F15D1FFF734
:100CB8006FFC801BA04201D8002CEFD100232B63CE
:100CC800202285F83D2085F83E302A6C42F020022B
:100CD8002A6485F83C30012070BD6FF010025A611B
:100CE80000232B63202285F83D2085F83E302A6CAE
:100CF8002A6485F83C300120EEE70020ECE700008C
:100D0800002800F0CC8070B5044690F83D30002BE8
:100D180077D0242384F83D302268136823F0010338
:100D280013602268136843F4004313602268136851
:100D380023F40043136000F0E5FD62685A4B9A42C1
:100D480064D85A4B98428CBF00230123002B40F0F3
:100D5800A8805749A1FB00318B0C25686A6822F0EE
:100D68003F0242EA91426A6021680A6A22F03F0221
:100D780066684D4DAE424FD8013313430B6221686C
:100D8800CA6922F44F4222F0FF026568464B9D4231
:100D98004CD8431E6D00B3FBF5F3013340F6FC70ED
:100DA800034278D0C3F30B031A43CA6121680B6866
:100DB80023F0C003E269206A024313430B602168F1
:100DC8008B6823F4034323F0FF032269E06802439E
:100DD80013438B602168CB6823F0FF036269A06925
:100DE80002431343CB602268136843F00103136086
:100DF80000202064202384F83D30206384F83E00DE
:100E080070BD80F83C3000F0A9FF82E7294B98427A
:100E18008CBF0023012399E74FF4967505FB03F374
:100E2800254DA5FB03539B090133A6E7A668BEB968
:100E3800431E05EB450CB3FBFCF30133C3F30B0373
:100E4800B3FA83F35B0943BBC6B9431E05EB4505FB
:100E5800B3FBF5F30133C3F30B0343F40043A3E7F8
:100E6800431E05EB850C0CEB8C0CB3FBFCF3013338
:100E7800C3F30B03B3FA83F35B09E4E7431E05EB03
:100E8800850505EB8505B3FBF5F30133C3F30B03C8
:100E980043F4404388E7042386E7012384E70120DD
:100EA80070470120ACE700BFA08601007F841E00C8
:100EB80083DE1B43FF083D00D34D62102DE9F0434C
:100EC80083B004460F46904699460C9EFFF760FB98
:100ED800054694F83D00C0B2202803D0022003B094
:100EE800BDE8F0830095192301224B492046FFF7FE
:100EF800D4FC002840F0898094F83C30012B00F0A5
:100F08008680012384F83C3023681A6812F0010FA8
:100F180003D11A6842F001021A602268136823F4A8
:100F280000631360212384F83D30402384F83E3069
:100F3800002323640A9B6362BDF82C306385638DAC
:100F48002385364BE362019500964B464246394667
:100F58002046FFF75FFD00285BD1238D002B35D09D
:100F68002A4631462046FFF72BFD20BB626A2368DC
:100F780012781A61626A531C6362218D013989B241
:100F88002185638D9BB2013B9BB2638523685869B9
:100F980010F0040FE1D00029DFD052781A61636A9B
:100FA80001336362238D013B2385638D9BB2013B33
:100FB8009BB26385D1E7236C042B01D001208EE717
:100FC8002268136843F400731360F7E72A46314632
:100FD8002046FFF735FE50B1236C042B01D00120C9
:100FE8007DE72268136843F400731360F7E722680B
:100FF800136843F400731360202384F83D30002302
:1010080084F83E3084F83C3069E7022067E7022024
:1010180065E7012063E700BF020010000000FFFF42
:101028002DE9F04387B004460F4690469946109E36
:10103800FFF7AEFA054694F83D00C0B2202804D068
:101048000227384607B0BDE8F0830095192301222E
:1010580088492046FFF721FC002840F0438194F896
:101068003C30012B00F04081012384F83C30236898
:101078001A6812F0010F03D11A6842F001021A60CF
:101088002268136823F400631360222384F83D3038
:10109800402384F83E30002323640E9B6362BDF82E
:1010A8003C306385638D2385734BE362019500961D
:1010B8004B46424639462046FFF718FD07460028AA
:1010C80040F01481238D5BB9029323685A69029218
:1010D8009A690292029A1A6842F400721A6075E0DC
:1010E800012B0AD0022B1AD00023059323685A69D2
:1010F80005929B690593059B68E02268136823F4B1
:10110800806313600023039323685A6903929A69E2
:101118000392039A1A6842F400721A6056E0226831
:10112800136823F4806313602268136843F4006330
:1011380013600023049323685A6904929B690493FB
:10114800049B43E02A4631462046FFF7A3FD0028CA
:1011580040F0CE8023681A69636A1A70636A0133A3
:101168006362238D013B2385638D9BB2013B9BB258
:1011780063852BE000953346002240492046FFF75F
:101188008CFB002840F0B6802268136843F4007393
:10119800136023681A69636A1A70626A531C63626F
:1011A800238D013B2385638D9BB2013B9BB26385F5
:1011B80023681B695370636A01336362238D013BA3
:1011C8002385638D9BB2013B9BB26385238D002BE6
:1011D8007FD0032B54D8012BB4D0022BCAD0009552
:1011E8003346002225492046FFF757FB002840F0E8
:1011F80083802268136823F48063136023681A6964
:10120800636A1A70636A01336362238D013B238525
:10121800638D9BB2013B9BB26385009533460022E8
:1012280016492046FFF739FB002867D12268136862
:1012380043F40073136023681A69636A1A70626A58
:10124800531C6362238D013B2385638D9BB2013B55
:101258009BB2638523681B695370636A01336362B9
:10126800238D013B2385638D9BB2013B9BB2638534
:10127800ACE700BF020010000000FFFF04000100FF
:101288002A4631462046FFF705FD002838D1236855
:101298001A69636A1A70626A531C6362238D013B80
:1012A8002385638D9BB2013B9BB263852368596993
:1012B80011F0040F8AD01B695370636A01336362AB
:1012C800238D013B2385638D9BB2013B9BB26385D4
:1012D8007CE7202384F83D30002384F83E3084F8EE
:1012E8003C30AEE60227ACE60227AAE60127A8E6CC
:1012F8000127A6E60127A4E60127A2E60127A0E622
:1013080001279EE6002800F0DA8170B582B0044615
:10131800036813F0010F3BD09F4B9B6803F00C034D
:10132800042B2CD09C4B9B6803F00C03082B21D07A
:101338006368B3F5803F4FD0B3F5A02F52D0964BDA
:101348001A6822F480321A601A6822F480221A601D
:101358006368002B50D0FFF71BF905468E4B1B68BE
:1013680013F4003F14D1FFF713F9401B6428F5D993
:101378000320ABE1884B5B6813F4800FD8D0864B11
:101388001B6813F4003F03D06368002B00F09981B9
:10139800236813F0020F54D07F4B9B6813F00C0F97
:1013A8003ED07D4B9B6803F00C03082B33D0E368D9
:1013B800002B68D0794B01221A60FFF7E9F805463F
:1013C800754B1B6813F0020F54D1FFF7E1F8401B6F
:1013D8000228F5D9032079E16F4A136843F4803372
:1013E8001360B5E76C4B1A6842F480221A601A68D9
:1013F80042F480321A60ABE7FFF7CAF80546664B3D
:101408001B6813F4003FC3D0FFF7C2F8401B6428E1
:10141800F5D903205AE1604B5B6813F4800FC6D1FD
:101428005D4B1B6813F0020F03D0E368012B40F0FB
:101438004A81594A136823F0F803216943EAC10332
:101448001360236813F0080F42D063696BB3534BE2
:101458000122C3F8802EFFF79BF805464E4B5B6FC1
:1014680013F0020F34D1FFF793F8401B0228F5D987
:1014780003202BE1484A136823F0F803216943EA63
:10148800C1031360DDE7454B00221A60FFF780F8BF
:101498000546414B1B6813F0020FD2D0FFF778F8CE
:1014A800401B0228F5D9032010E13C4B0022C3F869
:1014B800802EFFF76DF80546374B5B6F13F0020F70
:1014C80006D0FFF765F8401B0228F5D90320FDE098
:1014D800236813F0040F77D02F4B1B6C13F0805F39
:1014E80033D1002301932C4B1A6C42F080521A64BA
:1014F8001B6C03F080530193019B0125284B1B684B
:1015080013F4807F23D0A368012B34D0052B38D067
:10151800214B1A6F22F001021A671A6F22F0040297
:101528001A67A368002B3DD0FFF732F806461A4B1E
:101538001B6F13F0020F46D1FFF72AF8801B41F208
:1015480088339842F3D90320C0E00025D6E7144A2F
:10155800136843F480731360FFF71AF80646104BBC
:101568001B6813F4807FCED1FFF712F8801B022886
:10157800F5D90320AAE0084A136F43F00103136763
:10158800CFE7054B1A6F42F004021A671A6F42F050
:1015980001021A67C5E700BF003802400000474251
:1015A80000700040FEF7F4FF06464F4B1B6F13F028
:1015B800020F08D0FEF7ECFF801B41F288339842F7
:1015C800F3D9032082E0E5B9A369002B7DD0464A10
:1015D800926802F00C02082A51D0022B17D0434B14
:1015E80000221A66FEF7D4FF04463F4B1B6813F02F
:1015F800007F42D0FEF7CCFF001B0228F5D903205C
:1016080064E0394A136C23F080531364DCE7374BEA
:1016180000221A66FEF7BCFF0546334B1B6813F021
:10162800007F06D0FEF7B4FF401B0228F5D903203F
:101638004CE0E369226A1343626A43EA8213A26AAE
:101648005208013A43EA0243E26A43EA0263264A3D
:101658005360264B01221A66FEF79AFF0446224B76
:101668001B6813F0007F06D1FEF792FF001B0228CB
:10167800F5D903202AE0002028E0002026E0012BED
:1016880026D0194B9B6803F48001E269914221D16D
:1016980003F03F02216A8A421ED1616A47F6C0728E
:1016A8001A408A421AD103F44032A16A8A4217D1F9
:1016B80003F07063E26A934214D1002006E001202F
:1016C8007047012002E0012000E0002002B070BD58
:1016D8000120FBE70120F9E70120F7E70120F5E702
:1016E8000120F3E70120F1E70038024000004742FB
:1016F80008B5264B9B6803F00C03042B41D0082B3C
:1017080041D1224B5A6802F03F025B6813F4800F04
:1017180012D01E4B5968C1F388111D480023A1FB44
:101728000001FEF755FD194B5B68C3F30143013314
:101738005B00B0FBF3F008BD144B5868C0F3881089
:101748004FEA401CBCEB000C6EEB0E0E4FEA8E13FA
:1017580043EA9C634FEA8C11B1EB0C0163EB0E0377
:10176800DB0043EA5173C90011EB000C43F100039D
:10177800990200234FEA8C2041EA9C51FEF728FD8C
:10178800D1E70348D7E70348D5E700BF0038024050
:1017980040787D010024F400002800F09B8070B59B
:1017A8000D4604464F4B1B6803F00F038B4208D2CB
:1017B800CBB24C4A1370136803F00F038B4240F00E
:1017C8008B80236813F0020F17D013F0040F04D096
:1017D800454A936843F4E0539360236813F0080F75
:1017E80004D0414A936843F4604393603E4A936847
:1017F80023F0F003A1680B439360236813F0010FF3
:1018080032D06368012B21D09A1E012A25D9364A85
:10181800126812F0020F61D033498A6822F003027D
:1018280013438B60FEF7B4FE06462F4B9B6803F00C
:101838000C036268B3EB820F16D0FEF7A9FE801B7B
:1018480041F288339842F0D9032042E0264A1268D0
:1018580012F4003FE0D101203BE0234A126812F065
:10186800007FD9D1012034E01E4B1B6803F00F0321
:10187800AB4207D9EAB21B4B1A701B6803F00F037F
:10188800AB422DD1236813F0040F06D0164A936893
:1018980023F4E053E1680B439360236813F0080FC7
:1018A80007D0114A936823F46043216943EAC103CE
:1018B8009360FFF71DFF0C4B9B68C3F303130B4AA0
:1018C800D35CD8400A4B18600A4B1868FEF716FE1E
:1018D800002070BD012070470120FAE70120F8E7D9
:1018E8000120F6E7003C024000380240744E000830
:1018F8002000002004000020014B1868704700BF3A
:101908002000002008B5FFF7F7FF044B9B68C3F3DE
:101918008223034AD35CD84008BD00BF0038024088
:10192800844E000808B5FFF7E7FF044B9B68C3F334
:101938004233034AD35CD84008BD00BF0038024098
:10194800844E000810B504460268136923F4405316
:10195800C1680B431361836802691A4343691A43D8
:10196800C3691A430168CB6823F4164323F00C03B8
:101978001343CB600268536923F4407381690B43B6
:101988005361C369B3F5004F35D00368604A934289
:1019980000F0918002F58062934200F08C80FFF79E
:1019A800B1FF0021031849411B1841F10001C9008A
:1019B80041EA5371DB00181863684FEA83024FEA63
:1019C800937341F10001FEF703FC524AA2FB003178
:1019D8004909642303FB11031B013233A2FB0323D0
:1019E8005B0903F0F00202EB011203F00F03216818
:1019F80013448B608AE00368454A93422FD002F56E
:101A0800806293422BD0FFF77DFF0023021843EB3F
:101A18000301121841F10001C90041EA5271D200D4
:101A2800101841F10001626892185B41FEF7D0FB83
:101A3800384AA2FB00314909642303FB1103DB0088
:101A48003233A2FB03235B095A0002F4F87202EB5B
:101A5800011203F00703216813448B6056E0FFF777
:101A680061FF0023021843EB0301121841F1000142
:101A7800C90041EA5271D200101841F100016268B0
:101A880092185B41FEF7A4FB224AA2FB00314909E8
:101A9800642303FB1103DB003233A2FB03235B093E
:101AA8005A0002F4F87202EB011203F007032168EE
:101AB80013448B602AE0FFF735FF002103184941E2
:101AC8001B1841F10001C90041EA5371DB001818E5
:101AD80063684FEA83024FEA937341F10001FEF70E
:101AE80077FB0C4AA2FB00314909642303FB11036D
:101AF8001B013233A2FB03235B0903F0F00202EB64
:101B0800011203F00F03216813448B6010BD00BF5E
:101B1800001001401F85EB512DE9F84305460F469B
:101B280016469946DDF820802B681C6837EA0404BD
:101B38000CBF01240024B4421FD1B8F1FF3FF3D0F9
:101B4800B8F1000F05D0FEF723FDA0EB09004045D2
:101B5800EAD92A68D36823F4D073D3602A68536912
:101B680023F001035361202385F8393085F83A3092
:101B7800002385F83830032000E00020BDE8F88312
:101B880058B310B5044690F839300BB3242384F8C1
:101B980039302268D36823F40053D3602046FFF716
:101BA800D1FE2268136923F49043136122685369B4
:101BB80023F02A0353612268D36843F40053D360A7
:101BC8000020E063202384F8393084F83A3010BDCF
:101BD80080F8383000F0A6FCD8E7012070472DE9DE
:101BE800F04383B01E4690F83930DBB2202B56D133
:101BF80004460D469046002955D0002A55D090F845
:101C08003830012B53D0012380F838304FF00009C9
:101C1800C0F83C90212380F83930FEF7B9FC07461C
:101C2800A4F82480A4F8268084F8389010E0009660
:101C38003B46002280212046FFF76EFF002838D15E
:101C48002B882268C3F3080353602369CBB9023594
:101C5800E38C9BB2BBB1E28C92B2013A92B2E284BD
:101C6800A368B3F5805FE2D000963B46002280214E
:101C78002046FFF751FFF0B915F8012B23685A6089
:101C8800E6E70135E4E700963B460022402120467E
:101C9800FFF742FF88B9202384F8393000E002209A
:101CA80003B0BDE8F0830120FAE70120F8E702203D
:101CB800F6E70320F4E70320F2E70320F0E700004B
:101CC80084B000220092154B196B41F08001196312
:101CD800196B01F08001009100990192196B41F094
:101CE80004011963196B01F0040101910199029231
:101CF800196B41F001011963196B01F0010102919F
:101D0800029903921A6B42F002021A631B6B03F0EA
:101D180002030393039B04B0704700BF00380240DE
:101D280008B50B480B4B03600B4B436000238360E3
:101D3800C3604FF48042026143618361C3610362FF
:101D4800FEF7DEFF00B908BD00F0E8F9FBE700BFC9
:101D58004400002000540040A086010030B589B03E
:101D68000023039304930593069307930268154B86
:101D78009A4201D009B030BD00250195124C236B61
:101D880043F002032363236B03F002030193019BD7
:101D98004FF4407303931223049301230593032301
:101DA80006930423079303A90848FEF775FC0295D8
:101DB800236C43F400132364236C03F4001302938D
:101DC800029BD7E70054004000380240000402405C
:101DD80010B582B000238DF807300DF107020221FB
:101DE800E22000F00FFB68B900238DF807300DF1F1
:101DF80007020121E22000F005FB044638B920461D
:101E080002B010BD0446044800F016FBF7E703488B
:101E180000F012FBF3E700BF8C4E0008A44E000848
:101E280010B582B00446FFF7D3FF08BB8DF8074012
:101E38000DF107020321E22000F0E4FAE0B90DF108
:101E48000701E22000F0F2FAD0B99DF8073003F05C
:101E58007000702833D013F0100F16D1A4F1F702D8
:101E6800072A12D8DFE802F0101111111011101012
:101E7800154800F0E1FAD9E7144800F0DDFADEE78A
:101E8800134800F0D9FAE0E7042013F0200F0AD134
:101E9800A4F1F702072A06D8DFE802F004050505D1
:101EA80004050404022013F0400F09D1F73C072C65
:101EB80006D8DFE804F00705050507050707002031
:101EC80002B010BD0120FBE7B84E0008CC4E000858
:101ED800E04E000830B595B03022002108A800F087
:101EE80082FB0024039404940594069407940194B7
:101EF8001C4B1A6C42F080521A641B6C03F080531E
:101F08000193019B0294184B1A6842F480421A60AC
:101F18001B6803F480430293029B012308934FF448
:101F28008033099302250E954FF480030F931923EC
:101F380010934FF4A873119312950423139308A8D0
:101F4800FFF7E0F90F230393049505944FF4A0538A
:101F580006934FF480530793052103A8FFF71CFC51
:101F680015B030BD003802400070004070B506461C
:101F780003250DE005EB450CA4440E4A012306CACF
:101F880016F80C0000F0B2F90134022CF2DD013D24
:101F9800002D0BDBC5F1040101EB8101490005317E
:101FA800C9B2382000F014FA0024EEE700F0DEF899
:101FB80070BD00BF1800002008B5002000F0C6F86A
:101FC8000021084600F004FA00F0D0F808BD00002F
:101FD8002DE9F04385B000263C4800F02DFA3C4B33
:101FE80003933C4B6C4693E8070084E80700FFF72F
:101FF800E3FF394A012306CA384800F0D1F92046E0
:10200800FFF7B4FF00F0B2F835461DE005F1100304
:102018006B4413F8040CFFF703FF044601281AD099
:10202800022C29D0042C39D02646002FEED0B8F146
:10203800000FEBD0B9F1000FE8D0294800F0FCF907
:102048001920FEF7ABFA0135032D39DC4FF00009F2
:10205800C8464F46E9E78642E2D0224800F0ECF94C
:1020680005EB450312336B44312203F8102C684604
:10207800FFF77CFF2746D7E7A642D3D01A4800F0DF
:10208800DBF905EB450311336B44312203F8102CBF
:102098006846FFF76BFF4FF00108C5E7A642C3D0BB
:1020A800124800F0C9F905EB450310336B4431229F
:1020B80003F8102C6846FFF759FF4FF00109B3E702
:1020C8000B4800F0B9F905B0BDE8F083EC4E000804
:1020D800F7FBFDFE644F000818000020FC4E0008C6
:1020E800404F0008104F0008204F0008304F0008EC
:1020F800504F000808B5FEF725FAFFF7EBFEFFF78B
:10210800DFFDFFF70DFE00F0F3F900F057F8FFF7D9
:102118005FFF4FF4FA70FEF741FAF8E770470000E6
:1021280000B587B08DF817000A23029301230193A5
:102138000DF117020092002278210348FEF7BEFE37
:1021480007B05DF804FB00BF44000020002303E053
:10215800FF21054AD1540133B3F5806F03D200281B
:10216800F6D10146F5E770479800002010B584B015
:1021780000241AE0A4F15000C0B2FFF7D1FF0020FC
:10218800FFF7CEFF1020FFF7CBFF642302938023D5
:102198000193084B03EBC4130093012340227821D9
:1021A8000548FEF78BFE0134E4B2072CE2D904B0EF
:1021B80010BD00BF980000204400002008B564202E
:1021C800FEF7ECF9AE20FFF7ABFF2020FFF7A8FFE2
:1021D8001020FFF7A5FFB020FFF7A2FFC820FFF7E8
:1021E8009FFF0020FFF79CFF1020FFF799FF40207A
:1021F800FFF796FF8120FFF793FFFF20FFF790FF7F
:10220800A120FFF78DFFA620FFF78AFFA820FFF780
:1022180087FF3F20FFF784FFA420FFF781FFD3202B
:10222800FFF77EFF0020FFF77BFFD520FFF778FF41
:10223800F020FFF775FFD920FFF772FF2220FFF784
:102248006FFFDA20FFF76CFF1220FFF769FFDB2032
:10225800FFF766FF2020FFF763FF8D20FFF760FF81
:102268001420FFF75DFFAF20FFF75AFF0020FFF7AC
:102278006DFFFFF77BFF054B0022A3F80024A3F8AE
:102288000224012083F8050408BD00BF980000203F
:1022980010F0800F26D13F2924D810B4124B93F8A0
:1022A800043413B1B2FA82F25209012A0FD0CB08D2
:1022B80000EBC3100C4C225C01F0070101238B409A
:1022C800DB435BB2134023545DF8044B7047CB08E3
:1022D80000EBC310044C235C01F007018A40134350
:1022E8002354F1E7704700BF980000202DE9F0471C
:1022F80082B0814602A800E906009846274BB3F849
:1023080000349DF8006033447F2B42DC234BB3F844
:1023180002349DF801A053443F2B3CDC002523E008
:102328001E4BB3F80004B3F8021429442044B8FA49
:1023380088F25209C9B2C0B2FFF7AAFF0134A64217
:1023480011D907FA04F313F4004FE9D0134BB3F88B
:102358000004B3F80214294420444246C9B2C0B26A
:10236800FFF796FFEAE70135AA4508D9A9F1200346
:1023780003FB0A53019A32F813700024DFE7074A77
:10238800B2F800343344A2F80034484602B0BDE83D
:10239800F0870020FAE70020F8E700BF9800002047
:1023A80030B583B0044602A800E906001D4600E0E7
:1023B8000134207848B12B4602AA12E90600FFF73B
:1023C80095FF024620788242F2D003B030BD00006B
:1023D800024BA3F80004A3F80214704798000020E9
:1023E80000B585B0642302930123019300920A4645
:1023F80040EA03010248FEF713FE05B05DF804FB4E
:102408004400002000B585B020F001006423029349
:102418000123019300920A4601460348FEF74EFD48
:1024280005B05DF804FB00BF4400002008B50A466B
:102438000021FFF7D5FF08BD10B50446FDF7C0FE23
:102448004FF47A7382B221460148FFF7C8FB10BDEA
:10245800A004002082B0002100910B4B5A6C42F47A
:1024680080425A645A6C02F480420092009A0191A8
:102478001A6C42F080521A641B6C03F0805301936B
:10248800019B02B0704700BF003802407047FEE76A
:10249800FEE7FEE7FEE770477047704708B5FEF7AE
:1024A8006BF808BD0F49D1F8883043F47003C1F8C0
:1024B80088300D4B1A6842F001021A6000209860BB
:1024C8001A6822F0847222F480321A60074A5A602D
:1024D8001A6822F480221A60D8604FF000638B607B
:1024E800704700BF00ED00E00038024010300024C3
:1024F80008B50A480A4B03604FF4E13343600023F0
:102508008360C36003610C2242618361C361FFF78A
:1025180037FB00B908BDFFF701FEFBE7A004002068
:102528000014014000B589B0002303930493059378
:10253800069307930268154B9A4202D009B05DF8DA
:1025480004FB0021019103F592335A6C42F02002FA
:102558005A645A6C02F020020192019A02911A6B95
:1025680042F004021A631B6B03F004030293029BFC
:10257800C02303930223049303230693082307939A
:1025880003A90348FEF788F8D8E700BF0014014004
:1025980000080240DFF834D0002103E00C4B5B5800
:1025A800435004310B480C4B42189A42F6D30B4A5D
:1025B80002E0002342F8043B094B9A42F9D3FFF7A3
:1025C80071FF00F019F8FFF795FD70470000022031
:1025D800844F000800000020240000202400002070
:1025E800E0040020FEE702440346934200D170470E
:1025F80003F8011BF9E7000070B50D4D0D4C641B85
:10260800A4100026A64209D10B4D0C4C00F018F876
:10261800641BA4100026A64205D170BD55F8043BE2
:1026280098470136EEE755F8043B98470136F2E73C
:102638007C4F00087C4F00087C4F0008804F000842
:10264800F8B500BFF8BC08BC9E467047F8B500BF97
:08265800F8BC08BC9E46704767
:10266000000000000000000000000000000000006A
:10267000000000000000000000000000000000005A
:10268000000000000000000000000000000000004A
:1026900000000000E003E003E003E003E003E003E8
:1026A000E003E003C003C003C001C001C001C001DA
:1026B000C001000000000000E003E003E0030000B0
:1026C00000000000000000003C1E3C1E3C1E3C1EA2
:1026D0003C1E3C1E3C1E00000000000000000000EC
:1026E00000000000000000000000000000000000EA
:1026F000000000000000000000000000CE01CE033A
:10270000DE039E039C039C07FF3FFF7F3807380FC3
:10271000780F780F780EFFFFFFFFF01EF01CE01C13
:10272000E03CE03DE0390000000000000000000057
:10273000FC03FE0FEE1FE01EE01EE01EE01EE01F89
:10274000E00FE007F003FC01FE01FE01FE01FE01C7
:10275000FE01FE01FE3DFC3FF00FE001E001000044
:1027600000000000033E07F78FE78EE79EE3BCE31F
:10277000B8E7F8E7F0F7E03FC001FF03FF07F30712
:10278000F30FF31EF33CF338F3787FF03FE00000E3
:102790000000000000000000E007F80F780F781F2D
:1027A000781F781F780FF00FE00F801FC37FC3FBE7
:1027B000E7F3F7F1F7F0FFF07FF03EF87F7CFF3FA3
:1027C000EF1F00000000000000000000E003E00335
:1027D000E003E003E003C003C001000000000000CC
:1027E00000000000000000000000000000000000E9
:1027F00000000000000000000000000000000000D9
:102800003F007C00F001E001C003C00780078007A3
:10281000800F000F000F000F000F000F000F800F40
:1028200080078007C007C003E001F0017C003F0083
:102830000F000000007E001FC007C003E001F00190
:10284000F000F000F8007800780078007800780058
:102850007800F800F000F000F001E001C003C007CC
:10286000001F007E00780000E003C003C001CE39E5
:10287000FF3F7F3F20037003F807780F3C1F3806A7
:102880000000000000000000000000000000000048
:102890000000000000000000000000000000000038
:1028A0000000000000000000C001C001C001C00124
:1028B000C001C001C001FFFFFFFFC001C001C00196
:1028C000C001C001C00100000000000000000000C5
:1028D00000000000000000000000000000000000F8
:1028E00000000000000000000000000000000000E8
:1028F0000000E003E003E003E003E001E001E001A9
:10290000C001800300000000000000000000000083
:1029100000000000000000000000FE3FFE3F00003D
:1029200000000000000000000000000000000000A7
:102930000000000000000000000000000000000097
:102940000000000000000000000000000000000087
:1029500000000000000000000000E003E003E003CE
:10296000E003000000000000000000000F000F0066
:102970001E001E003C003C0078007800F000F000D3
:10298000E001E001C003C00380078007000F000FD3
:10299000001E001E003C003C0078007800F00000A3
:1029A000F007F80F7C1F3E3E1E3C1F7C1F7C0F78FB
:1029B0000F780F780F780F780F780F781F7C1F7CB7
:1029C0001E3C3E3E7C1FF80FF00700000000000098
:1029D00000000000F000F007F03FF03FF001F001D0
:1029E000F001F001F001F001F001F001F001F0015F
:1029F000F001F001F001F001F001FF3FFF3F0000A6
:102A00000000000000000000E00FF83F7C3C3C00AC
:102A10003E003E003E003C003C007C00F800F0011F
:102A2000E003C0078007000F001E003E003CFE3F91
:102A3000FE3F00000000000000000000F00FF81F43
:102A40007C1C3E003E003E003C003C00F800F00FC5
:102A5000F80F7C003E001E001E001E001E003E00FF
:102A60007C1CF81FE01F00000000000000000000B8
:102A70007800F800F800F801F803F807F807780F75
:102A8000781E781E783C78787878FFFFFFFF780012
:102A900078007800780078007800000000000000DE
:102AA00000000000FC1FFC1FFC1F001E001E001E7B
:102AB000001E001EE01FF81FFC007C003E003E00D0
:102AC0001E003E003E003C007C1CF81FE01F000082
:102AD0000000000000000000FC01FE078E0F001F38
:102AE000001E003E003C003CF83DFC3F3E7F1F7E48
:102AF0000F3C0F3C0F3C0F3C0F3E1F1E3E1FFC0FB8
:102B0000F00300000000000000000000FF3FFF3F56
:102B1000FF3F0F001E001E003C0038007800F00050
:102B2000F000E001E001C003C0038007800F800FC8
:102B3000000F001F001F0000000000000000000048
:102B4000F807FC0F3E1F1E1E1E3E1E3E1E1E3C1F93
:102B5000F80FF007F80FFC1E3E3E1F3C1F7C0F7C59
:102B60000F7C1F3C3E3FFC1FF007000000000000F0
:102B700000000000F007F80F7C1E3E3C1E3C1F7C4E
:102B80001F7C1F7C1F7C1F3C3F3EFF1FEF071F0069
:102B90001E001E003E003C00F838F03FE01F000021
:102BA0000000000000000000000000000000000025
:102BB00000000000E003E003E003E0030000000089
:102BC00000000000000000000000E003E003E0035C
:102BD000E003000000000000000000000000000012
:102BE0000000000000000000E003E003E003E00359
:102BF0000000000000000000000000000000E003F2
:102C0000E003E003E003E001E001E001C003800332
:102C100000000000000000000000000003000F00A2
:102C20003F00FC00F003C00F003F00FE003FC00F5C
:102C3000F003FC003F000F00030000000000000054
:102C40000000000000000000000000000000000084
:102C50000000000000000000FFFFFFFF0000000078
:102C60000000FFFFFFFF0000000000000000000068
:102C70000000000000000000000000000000000054
:102C80000000000000E000F8007E801FE007F8016F
:102C90007E001F007E00F801E007801F007E00F824
:102CA00000E000000000000000000000F01FFC3FFA
:102CB0003E381F381F381E001E003C007800F00010
:102CC000E001C003C003C007C0070000000000000F
:102CD000C007C007C007000000000000000000009F
:102CE000F803FE0F1E1F0F3E7F3CFF78EF79C7737E
:102CF000C7F38FF38FF38FF39FF39FF3FF73FF7B84
:102D0000F779003C1C1FFC0FF803000000000000D6
:102D100000000000000000000000E003E003F007F6
:102D2000F007F007780F780F7C0E3C1E3C1E3E3CEF
:102D3000FE3FFF3F1F780F780FF007F007F000000D
:102D40000000000000000000000000000000F83F4C
:102D5000FC3F3E3C1E3C1E3C1E3C3E3C7C3CF03F4F
:102D6000F83F7E3C1F3C1F3C0F3C0F3C1F3CFE3F8E
:102D7000F83F00000000000000000000000000001C
:102D80000000FF01FF07871F003E003C007C007829
:102D90000078007800780078007C007C003E003FDE
:102DA000831FFF07FF01000000000000000000007B
:102DB000000000000000F07FFC7F7E781F781F7805
:102DC0000F780F780F780F780F780F780F780F78CB
:102DD0001F781E787E78F87FE07F000000000000FA
:102DE00000000000000000000000FF3FFF3F003E29
:102DF000003E003E003E003E003EFE3FFE3F003EE5
:102E0000003E003E003E003E003EFF3FFF3F000010
:102E10000000000000000000000000000000FF1F94
:102E2000FF1F001E001E001E001E001E001EFF1FB2
:102E3000FF1F001E001E001E001E001E001E001EA2
:102E4000001E000000000000000000000000000064
:102E50000000FE03FF0F871F003E007C007C00780F
:102E600000F800F87FF87FF80F780F7C0F7C0F3E9A
:102E70008F1FFF0FFE030000000000000000000095
:102E80000000000000001F7C1F7C1F7C1F7C1F7C3B
:102E90001F7C1F7C1F7CFF7FFF7F1F7C1F7C1F7C94
:102EA0001F7C1F7C1F7C1F7C1F7C0000000000001B
:102EB00000000000000000000000FF3FFF3FE003B3
:102EC000E003E003E003E003E003E003E003E003EA
:102ED000E003E003E003E003E003FF3FFF3F000007
:102EE0000000000000000000000000000000FC1FC7
:102EF000FC1F7C007C007C007C007C007C007C0053
:102F00007C007C007C007C0078007800F838F03F82
:102F1000C03F0000000000000000000000000000B2
:102F200000001F3C1E3C3C3C783CF03CE03DE03F58
:102F3000C03F803FC03FE03FF03DF03C783C7C3CF0
:102F40003E3C1F3C0F3C0000000000000000000061
:102F5000000000000000003E003E003E003E003E3B
:102F6000003E003E003E003E003E003E003E003E71
:102F7000003E003E003EFF3FFF3F0000000000001B
:102F8000000000000000000000001FF81FFC1FFCF4
:102F90003FFE3FFE3FFE7FFF77FF77FFF7F7E7F744
:102FA000E7F3E7F3C7F307F007F007F007F00000D7
:102FB00000000000000000000000000000000F7C86
:102FC0000F7C0F7E0F7F0F7F8F7F8F7FCF7FEF7BF9
:102FD000EF79FF79FF78FF787F783F783F781F7827
:102FE0001F7800000000000000000000000000004A
:102FF0000000F007FC1F3E3E1F7C0F780F780FF893
:103000000FF80FF80FF80FF80FF80F780F781F7CF4
:103010003E3EFC1FF0070000000000000000000022
:10302000000000000000FC3FFF3F1F3E0F3E0F3E30
:103030000F3E0F3E1F3E3F3EFC3FF03F003E003E36
:10304000003E003E003E003E003E0000000000004A
:1030500000000000000000000000F007FC1F3E3EE2
:103060001F7C0F780F780FF80FF80FF80FF80FF894
:103070000FF80F780F781F7C3E3EFC1FF8077C008E
:103080003F000F0003000000000000000000F03FC0
:10309000FC3F7E3C3E3C1E3C1E3C3E3C3C3CFC3CE3
:1030A000F03FE03FF03DF83C7C3C3E3C1E3C1F3C8A
:1030B0000F3C0000000000000000000000000000C5
:1030C0000000FC07FE1F0E3E003C003C003C003EA2
:1030D000C01FF80FFE037F001F000F000F001F200E
:1030E0003E3CFC3FF01F000000000000000000001C
:1030F000000000000000FFFFFFFFE003E003E0032B
:10310000E003E003E003E003E003E003E003E003A7
:10311000E003E003E003E003E00300000000000040
:10312000000000000000000000000F7C0F7C0F7CFE
:103130000F7C0F7C0F7C0F7C0F7C0F7C0F7C0F7C37
:103140000F7C0F7C1E3C1E3C3E3EFC1FF007000027
:10315000000000000000000000000000000007F078
:1031600007F007F80F780F7C1E3C1E3C1E3E3C1EED
:103170003C1F781F780FF80FF007F007F007E00307
:10318000E00300000000000000000000000000005C
:10319000000003E003F003F007F0E7F3E7F3E7F3E1
:1031A000E773F77BF77FFF7F7F7F7F7F7E7F7E3FA9
:1031B0003E3E3E3E3E3E000000000000000000009B
:1031C00000000000000007F80F7C1E3E3E3E3C1F42
:1031D000F80FF007E007E003E003F007F80F7C0FBB
:1031E0007C1E3E3C1F780F780FF0000000000000AE
:1031F0000000000000000000000007F807780F7CC6
:103200001E3C1E3E3C1F780FF80FF007E003E00362
:10321000E003E003E003E003E003E003E003000079
:103220000000000000000000000000000000FF7F20
:10323000FF7F0F001F003E007C00F800F000E0015F
:10324000E003C007800F000F001E003E007CFF7FE0
:10325000FF7F00000000000000000000FF07800763
:103260008007800780078007800780078007800726
:103270008007800780078007800780078007800716
:1032800080078007800780078007FF07FF0700008F
:1032900000780078003C003C001E001E000F000F6C
:1032A00080078007C003C003E001E001F000F000E8
:1032B000780078003C003C001E001E000F000F004C
:1032C00007000000F07FF000F000F000F000F000D8
:1032D000F000F000F000F000F000F000F000F0006E
:1032E000F000F000F000F000F000F000F000F0005E
:1032F000F000F07FF07F0000C000C001C001E003DB
:10330000E003F007F0077807780F380F3C1E3C1EEB
:103310001E3C1E3C0F380F780778000000000000AC
:10332000000000000000000000000000000000009D
:10333000000000000000000000000000000000008D
:10334000000000000000000000000000000000007D
:10335000000000000000FFFFFFFF00000000000071
:10336000F00000000000000000000000000000006D
:10337000000000000000000000000000000000004D
:10338000000000000000000000000000000000003D
:10339000000000000000000000000000000000002D
:1033A000F80FFC3F7C3C3E003E003E00FE07FE1F47
:1033B0003E3E3E7C3E783E7C7E7CFF3FCF1F000041
:1033C0000000000000000000003C003C003C003C0D
:1033D000003C003CF83DFE3F3E3F1F3E0F3C0F3C93
:1033E0000F3C0F3C0F3C0F3C1F3C1E3C3E3FFC3F44
:1033F000F03B0000000000000000000000000000A2
:103400000000000000000000FE03FF0F871F003EC9
:10341000003E003C007C007C007C003C003E003E06
:10342000871FFF0FFE0300000000000000000000E7
:103430001F001F001F001F001F001F00FF07FF1FAE
:103440003F3E1F3C1F7C1F7C1F7C1F781F781F7C0A
:103450001F7C3F3C7F3EFF1FDF0F0000000000008D
:10346000000000000000000000000000000000005C
:10347000F803FC0F3E1F1E3E1F3C1F7CFF7FFF7F9B
:10348000007C007C003C003E071FFF0FFE03000095
:103490000000000000000000FF01E103C003C007BE
:1034A000C007C007FF7FFF7FC007C007C007C00776
:1034B000C007C007C007C007C007C007C007C007D4
:1034C000C007000000000000000000000000000035
:1034D0000000000000000000EF07FF1F7F3E1F3CC0
:1034E0001F7C1F7C1F781F781F781F7C1F7C3F3C30
:1034F0007F3EFF1FDF0F1E001E001E007C38F83FBE
:10350000003C003C003C003C003C003CFC3DFE3FDD
:103510009E3F1F3F1F3E1F3C1F3C1F3C1F3C1F3C4C
:103520001F3C1F3C1F3C1F3C1F3C000000000000D4
:1035300000000000F001F0010000000000000000A9
:10354000E07FE07FE001E001E001E001E001E00177
:10355000E001E001E001E001E001E001E001000044
:103560000000000000000000F800F800000000006B
:1035700000000000F83FF83FF800F800F800F800FD
:10358000F800F800F800F800F800F800F800F8007B
:10359000F800F800F800F000F071E07F003C003C1B
:1035A000003C003C003C003C1F3C3E3C7C3CF83C6A
:1035B000F03DE03DC03FC03FE03FF03DF83C7C3C8B
:1035C0003E3C1F3C1F3C00000000000000000000CB
:1035D000F07FF001F001F001F001F001F001F001E5
:1035E000F001F001F001F001F001F001F001F00153
:1035F000F001F001F001F001F00100000000000016
:1036000000000000000000000000000000000000BA
:103610009EF7FFFFFFFFFFFFE7FBE7F9C7F1C7F1E9
:10362000C7F1C7F1C7F1C7F1C7F1C7F1C7F1000092
:10363000000000000000000000000000000000008A
:1036400000000000FC3DFE3F9E3F1F3F1F3E1F3C11
:103650001F3C1F3C1F3C1F3C1F3C1F3C1F3C1F3C92
:103660001F3C0000000000000000000000000000FF
:103670000000000000000000F007FC1F3E3E1F3C61
:103680001F7C0F780F780F780F780F781F7C1F3C06
:103690003E3EFC1FF007000000000000000000009C
:1036A000000000000000000000000000F83DFE3FA8
:1036B0003E3F1F3E0F3C0F3C0F3C0F3C0F3C0F3C6E
:1036C0001F3C1E3E3E3FFC3FF83F003C003C003CA0
:1036D000003C003C00000000000000000000000072
:1036E000EE07FE1F7E3E1E3C1E7C1E781E781E7856
:1036F0001E781E781E7C3E7C7E3EFE1FDE0F1E0066
:103700001E001E001E001E00000000000000000041
:10371000000000007F1FFF1FE71FC71F871F001F3C
:10372000001F001F001F001F001F001F001F001FA1
:10373000001F00000000000000000000000000006A
:103740000000000000000000FC07FE1F0E1E003EEF
:10375000003E003FE01FFC07FE003E001E001E0072
:103760003E3CFC3FF01F0000000000000000000095
:10377000000000000000800780078007FF7FFF7FB8
:103780008007800780078007800780078007800701
:1037900080078007C007FF03FF0100000000000052
:1037A0000000000000000000000000000000000019
:1037B0001E3C1E3C1E3C1E3C1E3C1E3C1E3C1E3C39
:1037C0001E3C1E3C3E3C7E3CFE3EFE1FDE0F0000CB
:1037D00000000000000000000000000000000000E9
:1037E0000000000007F00F780F781E3C1E3C1E3EC4
:1037F0003C1E3C1E780F780FF00FF007F007E00337
:10380000E0030000000000000000000000000000D5
:10381000000000000000000003F0E3F1E3F3E7F331
:10382000F7F3F7F3F77F777F7F7F7F7F7F7F3E3EE2
:103830003E3E3E3E3E3E0000000000000000000014
:103840000000000000000000000000000F7C1E3E91
:103850003C3E3C1FF80FF007F007E003F007F807C5
:10386000F80F7C1E3E3E1F3C1F7800000000000049
:103870000000000000000000000000000000000048
:1038800007F80F780F7C1E3C1E3C3C1E3C1E3C1F64
:10389000780FF80FF007F007E003E003C003C00360
:1038A000C0038007800F007F0000000000000000C0
:1038B00000000000FF3FFF3F1F003E007C00F800BB
:1038C000F001E003C007800F001F001E003CFF7FD7
:1038D000FF7F00000000000000000000FE01E00388
:1038E000C003C003C003C003E001E001E001C00168
:1038F000C003803F803FC003C001E001E001E00160
:10390000C003C003C003C003E003FE017E0000004B
:10391000C001C001C001C001C001C001C001C0019F
:10392000C001C001C001C001C001C001C001C0018F
:10393000C001C001C001C001C001C001C001C0017F
:10394000C0010000C03FE003E001E001E001E00150
:10395000C001C003C003C001E001FE00FE00E001A1
:10396000C001C003C003C001E001E001E001E001CB
:10397000E003C03F003F0000000000000000000026
:103980000000000000000000000000000000073FF1
:10399000C77FE773FFF17EF0000000000000000029
:1039A0000000000000000000000000000000000017
:1039B0000000000000000000000000000000000007
:1039C00000000000000000000000000000000000F7
:1039D0000000000C000C000C000C000C000C000C93
:1039E000000C000C000C000C0000000C000C00008F
:1039F000000000000000001B001B001B001B001B40
:103A000000000000000000000000000000000000B6
:103A100000000000000000000000801980198019DB
:103A20008019C07FC07F80190033C07FC07F003302
:103A30000033003300330000000000000000001ECF
:103A4000003F807580650074003C001E0007800503
:103A5000806580658075003F001E00040004000042
:103A60000000007000D840D8C0D880D9007300068C
:103A7000000C801BC036C066C046C0068003000034
:103A8000000000000000001E003F00330033003340
:103A9000001E000CC03CC066806380618063C03E35
:103AA000801C0000000000000000000C000C000C56
:103AB000000C000C000000000000000000000000EE
:103AC0000000000000000000000000008000000175
:103AD0000003000600060004000C000C000C000CA3
:103AE000000C000C0004000600060003000180002A
:103AF000002000100018000C000C00040006000656
:103B000000060006000600060004000C000C001869
:103B1000001000200000000C002D003F001E0033AC
:103B20000000000000000000000000000000000095
:103B30000000000000000000000000000000000C79
:103B4000000C000C000CC0FFC0FF000C000C000CAF
:103B5000000C000000000000000000000000000059
:103B60000000000000000000000000000000000055
:103B7000000000000000000C000C0004000400081D
:103B80000000000000000000000000000000000035
:103B90000000001E001E00000000000000000000E9
:103BA0000000000000000000000000000000000015
:103BB0000000000000000000000000000000000CF9
:103BC000000C0000000000000000000300030003E0
:103BD0000006000600060006000C000C000C000C9D
:103BE0000018001800180000000000000000001E6F
:103BF000003F0033806180618061806D806D8061F5
:103C0000806180610033003F001E00000000000062
:103C100000000006000E001E00360026000600060A
:103C2000000600060006000600060006000600006A
:103C3000000000000000001E003F80738061806172
:103C4000800100030006000C001800300060807F37
:103C5000807F0000000000000000001C003E0063A8
:103C600000630003000E000E0003800180018061EC
:103C70008073003F001E00000000000000000006EE
:103C8000000E000E001E001E0016003600360066F4
:103C9000807F807F00060006000600000000000014
:103CA0000000007F007F006000600060006E007F09
:103CB00080638001800180618073003F001E0000EE
:103CC000000000000000001E003F803380610060A3
:103CD000006E007F80738061806180618033003F6F
:103CE000001E0000000000000000807F807F800137
:103CF0000003000300060006000C000C000C000886
:103D00000018001800180000000000000000001E4D
:103D1000003F8063806180610021001E003F806160
:103D2000806180618061003F001E00000000000093
:103D30000000001E003F007380618061806180731D
:103D4000803F801D800180610073003F001E0000E5
:103D50000000000000000000000000000000000C57
:103D6000000C000000000000000000000000000C3B
:103D7000000C000000000000000000000000000037
:103D800000000000000C000C00000000000000001B
:103D90000000000C000C00040004000800000000FB
:103DA0000000000080008003000E00380060003832
:103DB000000E8003800000000000000000000000F2
:103DC00000000000000000000000807F807F0000F5
:103DD0000000807F807F00000000000000000000E5
:103DE0000000000000000000000000000040007023
:103DF000001C000780010007001C0070004000004C
:103E000000000000000000000000001F803FC071A3
:103E1000C060C000C00180030007000E000C000C51
:103E20000000000C000C0000000000000000001E5C
:103E3000003F803180718063806F806D806D806F06
:103E4000806700600032003E001C0000000000009F
:103E50000000000E000E001B001B001B001B803129
:103E60008031803F803F8031C060C060C060000012
:103E7000000000000000007C007E0063006300631F
:103E80000063007E007E0063806180618063007F4C
:103E9000007E0000000000000000001E003F803196
:103EA0008061006000600060006000600060806110
:103EB0008031003F001E0000000000000000007C78
:103EC000007F0063806380618061806180618061C8
:103ED000806100630063007E007C00000000000041
:103EE0000000807F807F0060006000600060007FD5
:103EF000007F0060006000600060807F807F0000C5
:103F0000000000000000807F807F00600060006093
:103F10000060007F007F0060006000600060006063
:103F200000600000000000000000001E003F803123
:103F300080610060006000608063806380618061F8
:103F40008031803F001E0000000000000000806102
:103F500080618061806180618061807F807F80611D
:103F600080618061806180618061000000000000EC
:103F70000000003F003F000C000C000C000C000C87
:103F8000000C000C000C000C000C003F003F000077
:103F9000000000000000800180018001800180019C
:103FA0008001800180018001806180618073003F19
:103FB000001E0000000000000000C060806100637F
:103FC00000660066006C0078007C00660066006396
:103FD00080618061C060000000000000000000609F
:103FE00000600060006000600060006000600060D1
:103FF000006000600060807F807F000000000000A3
:104000000000C071C071C07BC07AC06AC06AC06E57
:10401000C064C060C060C060C060C060C0600000BC
:1040200000000000000080718071807980798079C3
:10403000806D806D806D806580678067806780633C
:1040400080630000000000000000001E003F0033FD
:104050008061806180618061806180618061806158
:104060000033003F001E0000000000000000007E42
:10407000007F80638061806180618063007F007E5B
:104080000060006000600060006000000000000050
:104090000000001E003F003380618061806180610C
:1040A00080618061806580670033803F401E000032
:1040B000000000000000007E007F8063806180615E
:1040C0008063007F007E0066006300638061806122
:1040D000C0600000000000000000000E001F8031E2
:1040E000803100300038001E00078003806180614D
:1040F0008031003F001E0000000000000000C0FFF3
:10410000C0FF000C000C000C000C000C000C000C9C
:10411000000C000C000C000C000C00000000000063
:104120000000806180618061806180618061806168
:1041300080618061806180618073003F001E0000AB
:10414000000000000000C060C060C06080318031AD
:104150008031001B001B001B001B000E000E000E18
:1041600000040000000000000000C0C0C0C0C0C0CB
:10417000C0C0C0C0C0CC804C804C805E8052805299
:104180008073806180610000000000000000C0C0FA
:10419000806080610033003B001E000C000C001E9C
:1041A000001F003B80718061C0C000000000000063
:1041B0000000C0C08061806100330033001E001E1B
:1041C000000C000C000C000C000C000C000C00009B
:1041D000000000000000803F803F800100030003DA
:1041E0000006000C000C0018001800300060807FF2
:1041F000807F000000000000000F000F000C000C8A
:10420000000C000C000C000C000C000C000C000C4E
:10421000000C000C000C000C000F000F0000001838
:1042200000180018000C000C000C000C0006000622
:104230000006000600030003000300000000000069
:10424000001E001E0006000600060006000600060E
:10425000000600060006000600060006000600062E
:10426000001E001E0000000C000C001E0012003397
:104270000033806180610000000000000000000049
:10428000000000000000000000000000000000002E
:10429000000000000000000000000000000000001E
:1042A0000000000000000000E0FF000000000038F7
:1042B0000018000C000000000000000000000000DA
:1042C00000000000000000000000000000000000EE
:1042D00000000000000000000000001F803F80611F
:1042E0008001801F803F80618063807FC038000034
:1042F0000000000000000060006000600060006ED0
:10430000007F807380618061806180618073007F45
:10431000006E00000000000000000000000000002F
:104320000000001E003F80738061006000608061BB
:104330008073003F001E00000000000000008001AC
:10434000800180018001801D803F807380618061D9
:10435000806180618073803F801D0000000000004C
:1043600000000000000000000000001E003F00737D
:104370008061807F807F00608071003F001E0000B0
:10438000000000000000C007C00F000C000C807F80
:10439000807F000C000C000C000C000C000C000CCA
:1043A000000C000000000000000000000000000001
:1043B000801D803F80738061806180618061807337
:1043C000803F801D80018063007F003E0000006010
:1043D000006000600060006F807F8071806180619C
:1043E0008061806180618061806100000000000068
:1043F00000000006000600000000003E003E00062F
:104400000006000600060006000600060006000082
:10441000000000000006000600000000003E003E14
:10442000000600060006000600060006000600065C
:1044300000060046007E003C000000600060006056
:104440000060806100630066006C007C00760063A1
:1044500000638061C0600000000000000000003EBA
:10446000003E0006000600060006000600060006E4
:10447000000600060006000600060000000000001E
:104480000000000000000000000080DDC0FFC0CE82
:10449000C0CCC0CCC0CCC0CCC0CCC0CCC0CC000048
:1044A0000000000000000000000000000000006F9D
:1044B000807F8071806180618061806180618061C6
:1044C000806100000000000000000000000000000B
:1044D0000000001E003F8073806180618061806108
:1044E0008073003F001E000000000000000000007C
:1044F00000000000006E007F807380618061806139
:1045000080618073007F006E00600060006000606A
:104510000000000000000000801D803F807380616B
:104520008061806180618073803F801D8001800197
:104530008001800100000000000000000000006712
:10454000803F003900300030003000300030003053
:10455000003000000000000000000000000000002B
:104560000000001E803F80610060007F803F80016E
:104570008061007F001E00000000000000000000BD
:10458000000800180018007F007F001800180018AD
:10459000001800180018801F800F000000000000A5
:1045A0000000000000000000000080618061806168
:1045B00080618061806180618063807F803D0000D8
:1045C0000000000000000000000000000000C060CB
:1045D000803180318031001B001B001B000E000E5B
:1045E00000060000000000000000000000000000C5
:1045F000000080DD80DD80DD00550055005500772E
:1046000000770022002200000000000000000000EF
:10461000000000000000806100330033001E000C29
:10462000000C001E00330033806100000000000019
:1046300000000000000000008061806180310033D4
:104640000033001B001B001B000E000E000E001CA0
:10465000007C007000000000000000000000C07F2F
:10466000C07F800100030006000C00180030C07FEE
:10467000C07F0000000000008003800700060006E5
:10468000000600060006000E001C001C000E0006BE
:1046900000060006000600068007800300060006EC
:1046A00000060006000600060006000600060006DA
:1046B00000060006000600060006000600060006CA
:1046C0000038003C000C000C000C000C000C000E2C
:1046D00000070007000E000C000C000C000C000C82
:1046E000003C003800000000000000000000000056
:1046F00000008038807F00470000000000000000BC
:1047000000000000000000000000000000000000A9
:104710000000000000000000000000000010001079
:104720000010001000100010000000100000000039
:104730000028002800280000000000000000000001
:104740000000000000240024007C00240048007CBD
:1047500000480048000000000038005400500038B5
:1047600000140054005400380010000000200054D1
:104770000058003000280054001400080000000019
:1047800000100028002800100034004800480034C1
:1047900000000000001000100010000000000000E9
:1047A00000000000000000000008001000200020B1
:1047B0000020002000200020001000080020001031
:1047C0000008000800080008000800080010002089
:1047D0000010003800100028000000000000000059
:1047E000000000000000000000100010007C00101D
:1047F00000100000000000000000000000000000A9
:104800000000000000000010001000100000000078
:104810000000000000000038000000000000000060
:104820000000000000000000000000000000001078
:104830000000000000080008001000100010001028
:104840000020002000000000003800440044005414
:104850000044004400440038000000000010003014
:1048600000500010001000100010001000000000A8
:104870000038004400440004000800100020007CC0
:104880000000000000380044000400180004000488
:10489000004400380000000000080018002800282C
:1048A0000048007C0008000800000000007C004078
:1048B00000400078000400040044003800000000BC
:1048C00000380044004000780044004400440038B0
:1048D00000000000007C0004000800100010002010
:1048E0000020002000000000003800440044003890
:1048F0000044004400440038000000000038004438
:1049000000440044003C0004004400380000000063
:104910000000000000100000000000000000001077
:104920000000000000000000000000100000000077
:10493000000000100010001000000000000C00300B
:1049400000400030000C00000000000000000000EB
:104950000000007C0000007C00000000000000005F
:104960000000000000600018000400180060000053
:10497000000000000038004400040008001000108F
:10498000000000100000000000380044004C0054FB
:10499000005C0040004000380000000000100028CB
:1049A000002800280028007C00440044000000008B
:1049B000007800440044007800440044004400783B
:1049C000000000000038004400400040004000406B
:1049D000004400380000000000700048004400441B
:1049E000004400440048007000000000007C0040CB
:1049F0000040007C004000400040007C00000000BF
:104A0000007C004000400078004000400040004032
:104A1000000000000038004400400040005C0044FA
:104A20000044003800000000004400440044007CC2
:104A3000004400440044004400000000003800101E
:104A400000100010001000100010003800000000DE
:104A500000040004000400040004000400440038C2
:104A60000000000000440048005000600050004872
:104A700000480044000000000040004000400040AA
:104A8000004000400040007C000000000044006C3A
:104A9000006C005400440044004400440000000046
:104AA00000440064006400540054004C004C004476
:104AB000000000000038004400440044004400446A
:104AC0000044003800000000007800440044004426
:104AD0000078004000400040000000000038004422
:104AE0000044004400440044005400380004000026
:104AF0000078004400440044007800480048004426
:104B000000000000003800440040003000080004AD
:104B10000044003800000000007C0010001000106D
:104B200000100010001000100000000000440044BD
:104B300000440044004400440044003800000000E9
:104B40000044004400440028002800280010001001
:104B50000000000000440044005400540054006C65
:104B60000028002800000000004400280028001051
:104B70000010002800280044000000000044004409
:104B80000028002800100010001000100000000095
:104B9000007C000400080010001000200040007C91
:104BA000000000000018001000100010001000109D
:104BB000001000100010001800200020001000104D
:104BC0000010001000080008000000000030001075
:104BD0000010001000100010001000100010003035
:104BE0000010002800280044000000000000000021
:104BF00000000000000000000000000000000000B5
:104C000000000000000000FE002000100000000076
:104C10000000000000000000000000000000000094
:104C200000380044003C0044004C00340000000008
:104C300000400040005800640044004400640058F4
:104C40000000000000000000003800440040004068
:104C50000044003800000000000400040034004C50
:104C600000440044004C003400000000000000003C
:104C700000380044007C0040004400380000000080
:104C8000000C0010007C001000100010001000103C
:104C900000000000000000000034004C004400440C
:104CA000004C0034000400780040004000580064CC
:104CB00000440044004400440000000000100000D4
:104CC0000070001000100010001000100000000024
:104CD0000010000000700010001000100010001004
:104CE000001000E00040004000480050006000500C
:104CF0000048004400000000007000100010001088
:104D00000010001000100010000000000000000063
:104D10000078005400540054005400540000000077
:104D200000000000005800640044004400440044B7
:104D3000000000000000000000380044004400446F
:104D4000004400380000000000000000005800642B
:104D5000004400440064005800400040000000008F
:104D60000034004C00440044004C003400040004B3
:104D70000000000000580064004000400040004077
:104D8000000000000000000000380044003000086F
:104D900000440038000000000020002000780020BF
:104DA000002000200020001800000000000000008B
:104DB0000044004400440044004C00340000000063
:104DC00000000000004400440028002800280010D3
:104DD0000000000000000000005400540054006C6B
:104DE0000028002800000000000000000044002807
:104DF0000010001000280044000000000000000027
:104E0000004400440028002800100010001000603A
:104E100000000000007C0008001000200040007C22
:104E200000000000001800100010001000200020FA
:104E300000100010001000180010001000100010EA
:104E400000100010001000100010001000300010C2
:104E500000100010000800080010001000100030C2
:104E60000000000000000074004C00000000000082
:104E70000000000000000000000000000102030428
:104E80000607080900000000010203044572726F62
:104E90007220777269746520706F6C6172697479C1
:104EA0000A0000004572726F722077726974652083
:104EB0006F75747075740A004572726F7220777224
:104EC00069746520696E69740A0000004572726F2A
:104ED0007220777269746520636F6E6669670A0075
:104EE00052656164206572726F720A004B422074D1
:104EF0006573742073746172740A000046726F6D7A
:104F000020626F74746F6D20746F20746F70000076
:104F1000526967687420707265737365640A000073
:104F200043656E74657220707265737365640A0000
:104F30004C65667420707265737365640A000000C6
:104F4000526F7720636F6D706C6574650A000000A6
:104F50004B42207465737420636F6D706C6574656B
:104F60000A000000303030303030303030303030F7
:044F7000000000003D
:084F740054B2FF7F01000000B0
:044F7C00AD0100087B
:044F8000890100089B
:104F84000100000010000000101A00006026000854
:104F94000B120000AC390008070A0000084700089B
:044FA4000024F400F1
:040000050800259D2D
:00000001FF
